{
  "transactions": [
    {
      "hash": "0x317f6de2a25b6f1e696cc51aa7af961083a430e18fdb6176791083c8c3b2b335",
      "transactionType": "CALL",
      "contractName": null,
      "contractAddress": "0x637a1259c6afd7e3adf63993ca7e58bb438ab1b1",
      "function": "approve(address,uint256)",
      "arguments": [
        "0x109c3870587220F9dee003B7089E3cb33218D8FB",
        "10000000"
      ],
      "transaction": {
        "from": "0x484826732d75d6a8018bfad3468bd84f64614268",
        "to": "0x637a1259c6afd7e3adf63993ca7e58bb438ab1b1",
        "gas": "0x13525",
        "value": "0x0",
        "input": "0x095ea7b3000000000000000000000000109c3870587220f9dee003b7089e3cb33218d8fb0000000000000000000000000000000000000000000000000000000000989680",
        "nonce": "0xc",
        "chainId": "0x66eee"
      },
      "additionalContracts": [],
      "isFixedGasLimit": false
    },
    {
      "hash": "0xd7accaf47b7b1723a0f9b80cdd5bb6b57ca8e963bc3179687ea7bf5aa69ea5c9",
      "transactionType": "CALL",
      "contractName": null,
      "contractAddress": "0x75faf114eafb1bdbe2f0316df893fd58ce46aa4d",
      "function": "approve(address,uint256)",
      "arguments": [
        "0x109c3870587220F9dee003B7089E3cb33218D8FB",
        "10000000"
      ],
      "transaction": {
        "from": "0x484826732d75d6a8018bfad3468bd84f64614268",
        "to": "0x75faf114eafb1bdbe2f0316df893fd58ce46aa4d",
        "gas": "0xc48b",
        "value": "0x0",
        "input": "0x095ea7b3000000000000000000000000109c3870587220f9dee003b7089e3cb33218d8fb0000000000000000000000000000000000000000000000000000000000989680",
        "nonce": "0xd",
        "chainId": "0x66eee"
      },
      "additionalContracts": [],
      "isFixedGasLimit": false
    },
    {
      "hash": "0x2f7d05fcd16c48c18888d0bec5d7dfdf19c9ecdf30335e61215c4e65caa411dd",
      "transactionType": "CALL",
      "contractName": null,
      "contractAddress": "0x109c3870587220f9dee003b7089e3cb33218d8fb",
      "function": "addLiquidity(uint256,uint256)",
      "arguments": [
        "10000000",
        "10000000"
      ],
      "transaction": {
        "from": "0x484826732d75d6a8018bfad3468bd84f64614268",
        "to": "0x109c3870587220f9dee003b7089e3cb33218d8fb",
        "gas": "0x221ef",
        "value": "0x0",
        "input": "0x9cd441da00000000000000000000000000000000000000000000000000000000009896800000000000000000000000000000000000000000000000000000000000989680",
        "nonce": "0xe",
        "chainId": "0x66eee"
      },
      "additionalContracts": [],
      "isFixedGasLimit": false
    }
  ],
  "receipts": [
    {
      "status": "0x1",
      "cumulativeGasUsed": "0x65fd3",
      "logs": [
        {
          "address": "0x637a1259c6afd7e3adf63993ca7e58bb438ab1b1",
          "topics": [
            "0x8c5be1e5ebec7d5bd14f71427d1e84f3dd0314c0f7b2291e5b200ac8c7c3b925",
            "0x000000000000000000000000484826732d75d6a8018bfad3468bd84f64614268",
            "0x000000000000000000000000109c3870587220f9dee003b7089e3cb33218d8fb"
          ],
          "data": "0x0000000000000000000000000000000000000000000000000000000000989680",
          "blockHash": "0x09705e63034199fa91fd7dcf5abe46bfbee4aff4eab3251a81f77a29b0747405",
          "blockNumber": "0xc4f47be",
          "transactionHash": "0x317f6de2a25b6f1e696cc51aa7af961083a430e18fdb6176791083c8c3b2b335",
          "transactionIndex": "0x7",
          "logIndex": "0x2",
          "removed": false
        }
      ],
      "logsBloom": "0x00000000000000000000000000000000000000000000000000000000000020000000000000000000000000000000000000000000000000001000000000200000000000000000000000000000000000000000000000000000000000000004000000000000000000000000000000000000020000000000000000000000000000000000000000000000000000000000000000000000000000000000000000000000020000200000000000000000000000000000000000000000000000000000014000000040000100000000000000000000000000000000000000000000000000000010000000000000000000000000000000000000000000000000000000000000",
      "type": "0x2",
      "transactionHash": "0x317f6de2a25b6f1e696cc51aa7af961083a430e18fdb6176791083c8c3b2b335",
      "transactionIndex": "0x7",
      "blockHash": "0x09705e63034199fa91fd7dcf5abe46bfbee4aff4eab3251a81f77a29b0747405",
      "blockNumber": "0xc4f47be",
      "gasUsed": "0xea99",
      "effectiveGasPrice": "0x5f5e100",
      "from": "0x484826732d75d6a8018bfad3468bd84f64614268",
      "to": "0x637a1259c6afd7e3adf63993ca7e58bb438ab1b1",
      "contractAddress": null,
      "gasUsedForL1": "0x0",
      "l1BlockNumber": "0x903479",
      "timeboosted": false
    },
    {
      "status": "0x1",
      "cumulativeGasUsed": "0xde599",
      "logs": [
        {
          "address": "0x75faf114eafb1bdbe2f0316df893fd58ce46aa4d",
          "topics": [
            "0x8c5be1e5ebec7d5bd14f71427d1e84f3dd0314c0f7b2291e5b200ac8c7c3b925",
            "0x000000000000000000000000484826732d75d6a8018bfad3468bd84f64614268",
            "0x000000000000000000000000109c3870587220f9dee003b7089e3cb33218d8fb"
          ],
          "data": "0x0000000000000000000000000000000000000000000000000000000000989680",
          "blockHash": "0xe739173c76b7aad37fd749bbd2c98af6d1b399670e5b4f193f38d132c95da9f6",
          "blockNumber": "0xc4f47ca",
          "transactionHash": "0xd7accaf47b7b1723a0f9b80cdd5bb6b57ca8e963bc3179687ea7bf5aa69ea5c9",
          "transactionIndex": "0x5",
          "logIndex": "0x2",
          "removed": false
        }
      ],
      "logsBloom": "0x00000000000000000000000000000000000000000000000000000000000000000000000000000000000000000000000000000000000000001000000000200000800000000000000000000000000000000000000000000000000000000004000000000000000000000000000000000000020000000000000000000000000000000000000000000000000000000000000000000000000000000000000000000000020000200000000000000000000000000000000000000000000000000000010000000040000000000000000000000000000000000000000000000000000000000010000000000000000000000000000000000000000000000100000000000004",
      "type": "0x2",
      "transactionHash": "0xd7accaf47b7b1723a0f9b80cdd5bb6b57ca8e963bc3179687ea7bf5aa69ea5c9",
      "transactionIndex": "0x5",
      "blockHash": "0xe739173c76b7aad37fd749bbd2c98af6d1b399670e5b4f193f38d132c95da9f6",
      "blockNumber": "0xc4f47ca",
      "gasUsed": "0x95c1",
      "effectiveGasPrice": "0x5f5e100",
      "from": "0x484826732d75d6a8018bfad3468bd84f64614268",
      "to": "0x75faf114eafb1bdbe2f0316df893fd58ce46aa4d",
      "contractAddress": null,
      "gasUsedForL1": "0x0",
      "l1BlockNumber": "0x90347b",
      "timeboosted": false
    },
    {
      "status": "0x1",
      "cumulativeGasUsed": "0x36793",
      "logs": [
        {
          "address": "0x637a1259c6afd7e3adf63993ca7e58bb438ab1b1",
          "topics": [
            "0xddf252ad1be2c89b69c2b068fc378daa952ba7f163c4a11628f55a4df523b3ef",
            "0x000000000000000000000000484826732d75d6a8018bfad3468bd84f64614268",
            "0x000000000000000000000000109c3870587220f9dee003b7089e3cb33218d8fb"
          ],
          "data": "0x0000000000000000000000000000000000000000000000000000000000989680",
          "blockHash": "0xebcd50a71a627c9b52ef029ba42721904703c979f9028c5d30248bc0f55766fd",
          "blockNumber": "0xc4f47d5",
          "transactionHash": "0x2f7d05fcd16c48c18888d0bec5d7dfdf19c9ecdf30335e61215c4e65caa411dd",
          "transactionIndex": "0x4",
          "logIndex": "0x0",
          "removed": false
        },
        {
          "address": "0x75faf114eafb1bdbe2f0316df893fd58ce46aa4d",
          "topics": [
            "0xddf252ad1be2c89b69c2b068fc378daa952ba7f163c4a11628f55a4df523b3ef",
            "0x000000000000000000000000484826732d75d6a8018bfad3468bd84f64614268",
            "0x000000000000000000000000109c3870587220f9dee003b7089e3cb33218d8fb"
          ],
          "data": "0x0000000000000000000000000000000000000000000000000000000000989680",
          "blockHash": "0xebcd50a71a627c9b52ef029ba42721904703c979f9028c5d30248bc0f55766fd",
          "blockNumber": "0xc4f47d5",
          "transactionHash": "0x2f7d05fcd16c48c18888d0bec5d7dfdf19c9ecdf30335e61215c4e65caa411dd",
          "transactionIndex": "0x4",
          "logIndex": "0x1",
          "removed": false
        },
        {
          "address": "0x109c3870587220f9dee003b7089e3cb33218d8fb",
          "topics": [
            "0x38f8a0c92f4c5b0b6877f878cb4c0c8d348a47b76d716c8e78f425043df9515b"
          ],
          "data": "0x00000000000000000000000000000000000000000000000000000000009896800000000000000000000000000000000000000000000000000000000000989680",
          "blockHash": "0xebcd50a71a627c9b52ef029ba42721904703c979f9028c5d30248bc0f55766fd",
          "blockNumber": "0xc4f47d5",
          "transactionHash": "0x2f7d05fcd16c48c18888d0bec5d7dfdf19c9ecdf30335e61215c4e65caa411dd",
          "transactionIndex": "0x4",
          "logIndex": "0x2",
          "removed": false
        }
      ],
      "logsBloom": "0x00000000000000000000000000000000000000000000000000000000000020000800000000000000000000000000000000000000000000001000000000000000800000000000000000000008000000000000000000008000000000000004000000000000000000000000000000000000020000000000000000000010000000000000000000000000000000000000000000000000000000000000000000000000000000200000080000000000004000000000000000000000000010000000014000000042000100000000000000000000000000000000000000000000100000000000000000000000000000000000000000000000000000000100000000000004",
      "type": "0x2",
      "transactionHash": "0x2f7d05fcd16c48c18888d0bec5d7dfdf19c9ecdf30335e61215c4e65caa411dd",
      "transactionIndex": "0x4",
      "blockHash": "0xebcd50a71a627c9b52ef029ba42721904703c979f9028c5d30248bc0f55766fd",
      "blockNumber": "0xc4f47d5",
      "gasUsed": "0x1754a",
      "effectiveGasPrice": "0x5f5e100",
      "from": "0x484826732d75d6a8018bfad3468bd84f64614268",
      "to": "0x109c3870587220f9dee003b7089e3cb33218d8fb",
      "contractAddress": null,
      "gasUsedForL1": "0x0",
      "l1BlockNumber": "0x90347b",
      "timeboosted": false
    }
  ],
  "libraries": [],
  "pending": [],
  "returns": {},
  "timestamp": 1760943272264,
  "chain": 421614,
  "commit": "d20ee0f"
}