{
  "transactions": [
    {
      "hash": "0x7bf6ab6c5d625e3b5d86197381a9ee73655bb6d7d765b3db80fc0e97a76a9b21",
      "transactionType": "CALL",
      "contractName": null,
      "contractAddress": "0x637a1259c6afd7e3adf63993ca7e58bb438ab1b1",
      "function": "approve(address,uint256)",
      "arguments": [
        "0x109c3870587220F9dee003B7089E3cb33218D8FB",
        "10000"
      ],
      "transaction": {
        "from": "0x484826732d75d6a8018bfad3468bd84f64614268",
        "to": "0x637a1259c6afd7e3adf63993ca7e58bb438ab1b1",
        "gas": "0x13515",
        "value": "0x0",
        "input": "0x095ea7b3000000000000000000000000109c3870587220f9dee003b7089e3cb33218d8fb0000000000000000000000000000000000000000000000000000000000002710",
        "nonce": "0x1",
        "chainId": "0x66eee"
      },
      "additionalContracts": [],
      "isFixedGasLimit": false
    },
    {
      "hash": "0xa7b8387e109d3af4371d2b7d1d5674fedbcd0234b145421f07d36bc18fb656eb",
      "transactionType": "CALL",
      "contractName": null,
      "contractAddress": "0x75faf114eafb1bdbe2f0316df893fd58ce46aa4d",
      "function": "approve(address,uint256)",
      "arguments": [
        "0x109c3870587220F9dee003B7089E3cb33218D8FB",
        "10000"
      ],
      "transaction": {
        "from": "0x484826732d75d6a8018bfad3468bd84f64614268",
        "to": "0x75faf114eafb1bdbe2f0316df893fd58ce46aa4d",
        "gas": "0x11d88",
        "value": "0x0",
        "input": "0x095ea7b3000000000000000000000000109c3870587220f9dee003b7089e3cb33218d8fb0000000000000000000000000000000000000000000000000000000000002710",
        "nonce": "0x2",
        "chainId": "0x66eee"
      },
      "additionalContracts": [],
      "isFixedGasLimit": false
    },
    {
      "hash": "0x01b42bd3f7c88be942e07fe688e0871234b6f3442b5f1c37a656187d52aea9d4",
      "transactionType": "CALL",
      "contractName": null,
      "contractAddress": "0x109c3870587220f9dee003b7089e3cb33218d8fb",
      "function": "addLiquidity(uint256,uint256)",
      "arguments": [
        "10000",
        "10000"
      ],
      "transaction": {
        "from": "0x484826732d75d6a8018bfad3468bd84f64614268",
        "to": "0x109c3870587220f9dee003b7089e3cb33218d8fb",
        "gas": "0x3a88f",
        "value": "0x0",
        "input": "0x9cd441da00000000000000000000000000000000000000000000000000000000000027100000000000000000000000000000000000000000000000000000000000002710",
        "nonce": "0x3",
        "chainId": "0x66eee"
      },
      "additionalContracts": [],
      "isFixedGasLimit": false
    }
  ],
  "receipts": [
    {
      "status": "0x1",
      "cumulativeGasUsed": "0x8e259",
      "logs": [
        {
          "address": "0x637a1259c6afd7e3adf63993ca7e58bb438ab1b1",
          "topics": [
            "0x8c5be1e5ebec7d5bd14f71427d1e84f3dd0314c0f7b2291e5b200ac8c7c3b925",
            "0x000000000000000000000000484826732d75d6a8018bfad3468bd84f64614268",
            "0x000000000000000000000000109c3870587220f9dee003b7089e3cb33218d8fb"
          ],
          "data": "0x0000000000000000000000000000000000000000000000000000000000002710",
          "blockHash": "0x6486db0c85fbe19aaf15b3d0718bfd38a061de7ee98e5af342569301130d1f41",
          "blockNumber": "0xc468a47",
          "transactionHash": "0x7bf6ab6c5d625e3b5d86197381a9ee73655bb6d7d765b3db80fc0e97a76a9b21",
          "transactionIndex": "0x3",
          "logIndex": "0x2",
          "removed": false
        }
      ],
      "logsBloom": "0x00000000000000000000000000000000000000000000000000000000000020000000000000000000000000000000000000000000000000001000000000200000000000000000000000000000000000000000000000000000000000000004000000000000000000000000000000000000020000000000000000000000000000000000000000000000000000000000000000000000000000000000000000000000020000200000000000000000000000000000000000000000000000000000014000000040000100000000000000000000000000000000000000000000000000000010000000000000000000000000000000000000000000000000000000000000",
      "type": "0x2",
      "transactionHash": "0x7bf6ab6c5d625e3b5d86197381a9ee73655bb6d7d765b3db80fc0e97a76a9b21",
      "transactionIndex": "0x3",
      "blockHash": "0x6486db0c85fbe19aaf15b3d0718bfd38a061de7ee98e5af342569301130d1f41",
      "blockNumber": "0xc468a47",
      "gasUsed": "0xea8d",
      "effectiveGasPrice": "0x5f5e100",
      "from": "0x484826732d75d6a8018bfad3468bd84f64614268",
      "to": "0x637a1259c6afd7e3adf63993ca7e58bb438ab1b1",
      "contractAddress": null,
      "gasUsedForL1": "0x0",
      "l1BlockNumber": "0x90071a",
      "timeboosted": false
    },
    {
      "status": "0x1",
      "cumulativeGasUsed": "0x506bb",
      "logs": [
        {
          "address": "0x75faf114eafb1bdbe2f0316df893fd58ce46aa4d",
          "topics": [
            "0x8c5be1e5ebec7d5bd14f71427d1e84f3dd0314c0f7b2291e5b200ac8c7c3b925",
            "0x000000000000000000000000484826732d75d6a8018bfad3468bd84f64614268",
            "0x000000000000000000000000109c3870587220f9dee003b7089e3cb33218d8fb"
          ],
          "data": "0x0000000000000000000000000000000000000000000000000000000000002710",
          "blockHash": "0xde6864cf02b5682d6130c7154a7c6c1baaeca7544e2f1c642301afae6bd8ca97",
          "blockNumber": "0xc468a4f",
          "transactionHash": "0xa7b8387e109d3af4371d2b7d1d5674fedbcd0234b145421f07d36bc18fb656eb",
          "transactionIndex": "0x5",
          "logIndex": "0x2",
          "removed": false
        }
      ],
      "logsBloom": "0x00000000000000000000000000000000000000000000000000000000000000000000000000000000000000000000000000000000000000001000000000200000800000000000000000000000000000000000000000000000000000000004000000000000000000000000000000000000020000000000000000000000000000000000000000000000000000000000000000000000000000000000000000000000020000200000000000000000000000000000000000000000000000000000010000000040000000000000000000000000000000000000000000000000000000000010000000000000000000000000000000000000000000000100000000000004",
      "type": "0x2",
      "transactionHash": "0xa7b8387e109d3af4371d2b7d1d5674fedbcd0234b145421f07d36bc18fb656eb",
      "transactionIndex": "0x5",
      "blockHash": "0xde6864cf02b5682d6130c7154a7c6c1baaeca7544e2f1c642301afae6bd8ca97",
      "blockNumber": "0xc468a4f",
      "gasUsed": "0xd881",
      "effectiveGasPrice": "0x5f5e100",
      "from": "0x484826732d75d6a8018bfad3468bd84f64614268",
      "to": "0x75faf114eafb1bdbe2f0316df893fd58ce46aa4d",
      "contractAddress": null,
      "gasUsedForL1": "0x0",
      "l1BlockNumber": "0x90071a",
      "timeboosted": false
    },
    {
      "status": "0x1",
      "cumulativeGasUsed": "0xc47c7",
      "logs": [
        {
          "address": "0x637a1259c6afd7e3adf63993ca7e58bb438ab1b1",
          "topics": [
            "0xddf252ad1be2c89b69c2b068fc378daa952ba7f163c4a11628f55a4df523b3ef",
            "0x000000000000000000000000484826732d75d6a8018bfad3468bd84f64614268",
            "0x000000000000000000000000109c3870587220f9dee003b7089e3cb33218d8fb"
          ],
          "data": "0x0000000000000000000000000000000000000000000000000000000000002710",
          "blockHash": "0x102d3fc935b643adc969773b643095fa9dba83454a03cf3364f0e2cd8a580d03",
          "blockNumber": "0xc468a57",
          "transactionHash": "0x01b42bd3f7c88be942e07fe688e0871234b6f3442b5f1c37a656187d52aea9d4",
          "transactionIndex": "0x5",
          "logIndex": "0xb",
          "removed": false
        },
        {
          "address": "0x75faf114eafb1bdbe2f0316df893fd58ce46aa4d",
          "topics": [
            "0xddf252ad1be2c89b69c2b068fc378daa952ba7f163c4a11628f55a4df523b3ef",
            "0x000000000000000000000000484826732d75d6a8018bfad3468bd84f64614268",
            "0x000000000000000000000000109c3870587220f9dee003b7089e3cb33218d8fb"
          ],
          "data": "0x0000000000000000000000000000000000000000000000000000000000002710",
          "blockHash": "0x102d3fc935b643adc969773b643095fa9dba83454a03cf3364f0e2cd8a580d03",
          "blockNumber": "0xc468a57",
          "transactionHash": "0x01b42bd3f7c88be942e07fe688e0871234b6f3442b5f1c37a656187d52aea9d4",
          "transactionIndex": "0x5",
          "logIndex": "0xc",
          "removed": false
        },
        {
          "address": "0x109c3870587220f9dee003b7089e3cb33218d8fb",
          "topics": [
            "0x38f8a0c92f4c5b0b6877f878cb4c0c8d348a47b76d716c8e78f425043df9515b"
          ],
          "data": "0x00000000000000000000000000000000000000000000000000000000000027100000000000000000000000000000000000000000000000000000000000002710",
          "blockHash": "0x102d3fc935b643adc969773b643095fa9dba83454a03cf3364f0e2cd8a580d03",
          "blockNumber": "0xc468a57",
          "transactionHash": "0x01b42bd3f7c88be942e07fe688e0871234b6f3442b5f1c37a656187d52aea9d4",
          "transactionIndex": "0x5",
          "logIndex": "0xd",
          "removed": false
        }
      ],
      "logsBloom": "0x00000000000000000000000000000000000000000000000000000000000020000800000000000000000000000000000000000000000000001000000000000000800000000000000000000008000000000000000000008000000000000004000000000000000000000000000000000000020000000000000000000010000000000000000000000000000000000000000000000000000000000000000000000000000000200000080000000000004000000000000000000000000010000000014000000042000100000000000000000000000000000000000000000000100000000000000000000000000000000000000000000000000000000100000000000004",
      "type": "0x2",
      "transactionHash": "0x01b42bd3f7c88be942e07fe688e0871234b6f3442b5f1c37a656187d52aea9d4",
      "transactionIndex": "0x5",
      "blockHash": "0x102d3fc935b643adc969773b643095fa9dba83454a03cf3364f0e2cd8a580d03",
      "blockNumber": "0xc468a57",
      "gasUsed": "0x28062",
      "effectiveGasPrice": "0x5f5e100",
      "from": "0x484826732d75d6a8018bfad3468bd84f64614268",
      "to": "0x109c3870587220f9dee003b7089e3cb33218d8fb",
      "contractAddress": null,
      "gasUsedForL1": "0x0",
      "l1BlockNumber": "0x90071a",
      "timeboosted": false
    }
  ],
  "libraries": [],
  "pending": [],
  "returns": {},
  "timestamp": 1760799950881,
  "chain": 421614,
  "commit": "077cb0a"
}