{
  "transactions": [
    {
      "hash": "0x794e794a61d00369a1a73bfc5eeefac6ef716f640b02bc5e34094dbbd848678b",
      "transactionType": "CALL",
      "contractName": null,
      "contractAddress": "0xcac524bca292aaade2df8a05cc58f0a65b1b3bb9",
      "function": "approve(address,uint256)",
      "arguments": [
        "0xB4345e4fb5c91017357284311C0E8b3C787DAeDC",
        "10000000"
      ],
      "transaction": {
        "from": "0x484826732d75d6a8018bfad3468bd84f64614268",
        "to": "0xcac524bca292aaade2df8a05cc58f0a65b1b3bb9",
        "gas": "0xe83e",
        "value": "0x0",
        "input": "0x095ea7b3000000000000000000000000b4345e4fb5c91017357284311c0e8b3c787daedc0000000000000000000000000000000000000000000000000000000000989680",
        "nonce": "0x99",
        "chainId": "0xaa36a7"
      },
      "additionalContracts": [],
      "isFixedGasLimit": false
    },
    {
      "hash": "0x9102848c08ed63d142972f4af144085d707e29e00e457c49adf58e86dbbab320",
      "transactionType": "CALL",
      "contractName": null,
      "contractAddress": "0x1c7d4b196cb0c7b01d743fbc6116a902379c7238",
      "function": "approve(address,uint256)",
      "arguments": [
        "0xB4345e4fb5c91017357284311C0E8b3C787DAeDC",
        "10000000"
      ],
      "transaction": {
        "from": "0x484826732d75d6a8018bfad3468bd84f64614268",
        "to": "0x1c7d4b196cb0c7b01d743fbc6116a902379c7238",
        "gas": "0x12b1b",
        "value": "0x0",
        "input": "0x095ea7b3000000000000000000000000b4345e4fb5c91017357284311c0e8b3c787daedc0000000000000000000000000000000000000000000000000000000000989680",
        "nonce": "0x9a",
        "chainId": "0xaa36a7"
      },
      "additionalContracts": [],
      "isFixedGasLimit": false
    },
    {
      "hash": "0xebd61dca84b9ab2976cd362d09bff69f9ea290fb52b58df905bd7264a35c83b3",
      "transactionType": "CALL",
      "contractName": null,
      "contractAddress": "0xb4345e4fb5c91017357284311c0e8b3c787daedc",
      "function": "addLiquidity(uint256,uint256)",
      "arguments": [
        "10000000",
        "10000000"
      ],
      "transaction": {
        "from": "0x484826732d75d6a8018bfad3468bd84f64614268",
        "to": "0xb4345e4fb5c91017357284311c0e8b3c787daedc",
        "gas": "0x2226e",
        "value": "0x0",
        "input": "0x9cd441da00000000000000000000000000000000000000000000000000000000009896800000000000000000000000000000000000000000000000000000000000989680",
        "nonce": "0x9b",
        "chainId": "0xaa36a7"
      },
      "additionalContracts": [],
      "isFixedGasLimit": false
    }
  ],
  "receipts": [
    {
      "status": "0x1",
      "cumulativeGasUsed": "0x81fa1f",
      "logs": [
        {
          "address": "0xcac524bca292aaade2df8a05cc58f0a65b1b3bb9",
          "topics": [
            "0x8c5be1e5ebec7d5bd14f71427d1e84f3dd0314c0f7b2291e5b200ac8c7c3b925",
            "0x000000000000000000000000484826732d75d6a8018bfad3468bd84f64614268",
            "0x000000000000000000000000b4345e4fb5c91017357284311c0e8b3c787daedc"
          ],
          "data": "0x0000000000000000000000000000000000000000000000000000000000989680",
          "blockHash": "0x1ce93c7c3549082eb609c9fe5869fb85c45608935981f7d8fee06cd48c8937f9",
          "blockNumber": "0x903483",
          "blockTimestamp": "0x68f5dd00",
          "transactionHash": "0x794e794a61d00369a1a73bfc5eeefac6ef716f640b02bc5e34094dbbd848678b",
          "transactionIndex": "0x59",
          "logIndex": "0x5a",
          "removed": false
        }
      ],
      "logsBloom": "0x00000000000000000000800000000000000000000000000000000000000000000000000000000000000000000000800000000000000000001000000000200000000000000000000000000000000000000000000000000000000000000004000000000000000000000000000000000000000000000000000000000000000000000000000000000000000000000000000000000000000000000000000000000000020000000000000000000000000040000000000000000000000000000000000000000060000000000000000000000000200000000000000080000000000000000010000000000000000000000000000000000000000000000000000000000000",
      "type": "0x2",
      "transactionHash": "0x794e794a61d00369a1a73bfc5eeefac6ef716f640b02bc5e34094dbbd848678b",
      "transactionIndex": "0x59",
      "blockHash": "0x1ce93c7c3549082eb609c9fe5869fb85c45608935981f7d8fee06cd48c8937f9",
      "blockNumber": "0x903483",
      "gasUsed": "0xa824",
      "effectiveGasPrice": "0xf424a",
      "from": "0x484826732d75d6a8018bfad3468bd84f64614268",
      "to": "0xcac524bca292aaade2df8a05cc58f0a65b1b3bb9",
      "contractAddress": null
    },
    {
      "status": "0x1",
      "cumulativeGasUsed": "0x82d2ac",
      "logs": [
        {
          "address": "0x1c7d4b196cb0c7b01d743fbc6116a902379c7238",
          "topics": [
            "0x8c5be1e5ebec7d5bd14f71427d1e84f3dd0314c0f7b2291e5b200ac8c7c3b925",
            "0x000000000000000000000000484826732d75d6a8018bfad3468bd84f64614268",
            "0x000000000000000000000000b4345e4fb5c91017357284311c0e8b3c787daedc"
          ],
          "data": "0x0000000000000000000000000000000000000000000000000000000000989680",
          "blockHash": "0x1ce93c7c3549082eb609c9fe5869fb85c45608935981f7d8fee06cd48c8937f9",
          "blockNumber": "0x903483",
          "blockTimestamp": "0x68f5dd00",
          "transactionHash": "0x9102848c08ed63d142972f4af144085d707e29e00e457c49adf58e86dbbab320",
          "transactionIndex": "0x5a",
          "logIndex": "0x5b",
          "removed": false
        }
      ],
      "logsBloom": "0x00000000000000000000800000000000000000000000000000000000000200000000000000000000000000000000000000000000000000001000000000200000000000000000000000000000000000000000000000000000000000000004000000000000000000000000000000000000000000000000000000000000000000000000000000100000000000000000000000000000000000000000000000000000020000000000000000000000000000000000000000000000000000000000000000000060000000000000000000000000000000000000000080000000000000000010000000000000000010000000000000000000000000000000000000000000",
      "type": "0x2",
      "transactionHash": "0x9102848c08ed63d142972f4af144085d707e29e00e457c49adf58e86dbbab320",
      "transactionIndex": "0x5a",
      "blockHash": "0x1ce93c7c3549082eb609c9fe5869fb85c45608935981f7d8fee06cd48c8937f9",
      "blockNumber": "0x903483",
      "gasUsed": "0xd88d",
      "effectiveGasPrice": "0xf424a",
      "from": "0x484826732d75d6a8018bfad3468bd84f64614268",
      "to": "0x1c7d4b196cb0c7b01d743fbc6116a902379c7238",
      "contractAddress": null
    },
    {
      "status": "0x1",
      "cumulativeGasUsed": "0x84484d",
      "logs": [
        {
          "address": "0xcac524bca292aaade2df8a05cc58f0a65b1b3bb9",
          "topics": [
            "0xddf252ad1be2c89b69c2b068fc378daa952ba7f163c4a11628f55a4df523b3ef",
            "0x000000000000000000000000484826732d75d6a8018bfad3468bd84f64614268",
            "0x000000000000000000000000b4345e4fb5c91017357284311c0e8b3c787daedc"
          ],
          "data": "0x0000000000000000000000000000000000000000000000000000000000989680",
          "blockHash": "0x1ce93c7c3549082eb609c9fe5869fb85c45608935981f7d8fee06cd48c8937f9",
          "blockNumber": "0x903483",
          "blockTimestamp": "0x68f5dd00",
          "transactionHash": "0xebd61dca84b9ab2976cd362d09bff69f9ea290fb52b58df905bd7264a35c83b3",
          "transactionIndex": "0x5b",
          "logIndex": "0x5c",
          "removed": false
        },
        {
          "address": "0x1c7d4b196cb0c7b01d743fbc6116a902379c7238",
          "topics": [
            "0xddf252ad1be2c89b69c2b068fc378daa952ba7f163c4a11628f55a4df523b3ef",
            "0x000000000000000000000000484826732d75d6a8018bfad3468bd84f64614268",
            "0x000000000000000000000000b4345e4fb5c91017357284311c0e8b3c787daedc"
          ],
          "data": "0x0000000000000000000000000000000000000000000000000000000000989680",
          "blockHash": "0x1ce93c7c3549082eb609c9fe5869fb85c45608935981f7d8fee06cd48c8937f9",
          "blockNumber": "0x903483",
          "blockTimestamp": "0x68f5dd00",
          "transactionHash": "0xebd61dca84b9ab2976cd362d09bff69f9ea290fb52b58df905bd7264a35c83b3",
          "transactionIndex": "0x5b",
          "logIndex": "0x5d",
          "removed": false
        },
        {
          "address": "0xb4345e4fb5c91017357284311c0e8b3c787daedc",
          "topics": [
            "0x38f8a0c92f4c5b0b6877f878cb4c0c8d348a47b76d716c8e78f425043df9515b"
          ],
          "data": "0x00000000000000000000000000000000000000000000000000000000009896800000000000000000000000000000000000000000000000000000000000989680",
          "blockHash": "0x1ce93c7c3549082eb609c9fe5869fb85c45608935981f7d8fee06cd48c8937f9",
          "blockNumber": "0x903483",
          "blockTimestamp": "0x68f5dd00",
          "transactionHash": "0xebd61dca84b9ab2976cd362d09bff69f9ea290fb52b58df905bd7264a35c83b3",
          "transactionIndex": "0x5b",
          "logIndex": "0x5e",
          "removed": false
        }
      ],
      "logsBloom": "0x00000000000000000000800000000000000000000000000000000000000200000800000000000000000000000000800000000000000000001000000000000000200000000000000000000008000000000000000000000004000000000004000000000000000000000000000000000000000000080000000000000010000000000000000000100000000000000000000000000000000000000000000000000000000000000000080000000000000040000000000000000000000010000000000000000062000000000000000000000000200000000000000080000000000000000000000000000000000010000000000000000000000000000000000000000000",
      "type": "0x2",
      "transactionHash": "0xebd61dca84b9ab2976cd362d09bff69f9ea290fb52b58df905bd7264a35c83b3",
      "transactionIndex": "0x5b",
      "blockHash": "0x1ce93c7c3549082eb609c9fe5869fb85c45608935981f7d8fee06cd48c8937f9",
      "blockNumber": "0x903483",
      "gasUsed": "0x175a1",
      "effectiveGasPrice": "0xf424a",
      "from": "0x484826732d75d6a8018bfad3468bd84f64614268",
      "to": "0xb4345e4fb5c91017357284311c0e8b3c787daedc",
      "contractAddress": null
    }
  ],
  "libraries": [],
  "pending": [],
  "returns": {},
  "timestamp": 1760943361661,
  "chain": 11155111,
  "commit": "d20ee0f"
}