{
  "transactions": [
    {
      "hash": "0x836fd03b873cb89728850d9e40c1ef6aa8572a61d08bcd5b581fa45b7e066cce",
      "transactionType": "CALL",
      "contractName": null,
      "contractAddress": "0xcac524bca292aaade2df8a05cc58f0a65b1b3bb9",
      "function": "approve(address,uint256)",
      "arguments": [
        "0xB4345e4fb5c91017357284311C0E8b3C787DAeDC",
        "10000"
      ],
      "transaction": {
        "from": "0x484826732d75d6a8018bfad3468bd84f64614268",
        "to": "0xcac524bca292aaade2df8a05cc58f0a65b1b3bb9",
        "gas": "0x14471",
        "value": "0x0",
        "input": "0x095ea7b3000000000000000000000000b4345e4fb5c91017357284311c0e8b3c787daedc0000000000000000000000000000000000000000000000000000000000002710",
        "nonce": "0x78",
        "chainId": "0xaa36a7"
      },
      "additionalContracts": [],
      "isFixedGasLimit": false
    },
    {
      "hash": "0x9d5762315f3012b72a980d77a52730c0632dbb58eaf58b7449579e085a8af9aa",
      "transactionType": "CALL",
      "contractName": null,
      "contractAddress": "0x1c7d4b196cb0c7b01d743fbc6116a902379c7238",
      "function": "approve(address,uint256)",
      "arguments": [
        "0xB4345e4fb5c91017357284311C0E8b3C787DAeDC",
        "10000"
      ],
      "transaction": {
        "from": "0x484826732d75d6a8018bfad3468bd84f64614268",
        "to": "0x1c7d4b196cb0c7b01d743fbc6116a902379c7238",
        "gas": "0x13ca2",
        "value": "0x0",
        "input": "0x095ea7b3000000000000000000000000b4345e4fb5c91017357284311c0e8b3c787daedc0000000000000000000000000000000000000000000000000000000000002710",
        "nonce": "0x79",
        "chainId": "0xaa36a7"
      },
      "additionalContracts": [],
      "isFixedGasLimit": false
    },
    {
      "hash": "0x3efbd21f6f6c9cbb5933e770c57a6a6df616457512a740ecb20c61081b96d367",
      "transactionType": "CALL",
      "contractName": null,
      "contractAddress": "0xb4345e4fb5c91017357284311c0e8b3c787daedc",
      "function": "addLiquidity(uint256,uint256)",
      "arguments": [
        "10000",
        "10000"
      ],
      "transaction": {
        "from": "0x484826732d75d6a8018bfad3468bd84f64614268",
        "to": "0xb4345e4fb5c91017357284311c0e8b3c787daedc",
        "gas": "0x2224b",
        "value": "0x0",
        "input": "0x9cd441da00000000000000000000000000000000000000000000000000000000000027100000000000000000000000000000000000000000000000000000000000002710",
        "nonce": "0x7a",
        "chainId": "0xaa36a7"
      },
      "additionalContracts": [],
      "isFixedGasLimit": false
    }
  ],
  "receipts": [
    {
      "status": "0x1",
      "cumulativeGasUsed": "0x5d1d56",
      "logs": [
        {
          "address": "0xcac524bca292aaade2df8a05cc58f0a65b1b3bb9",
          "topics": [
            "0x8c5be1e5ebec7d5bd14f71427d1e84f3dd0314c0f7b2291e5b200ac8c7c3b925",
            "0x000000000000000000000000484826732d75d6a8018bfad3468bd84f64614268",
            "0x000000000000000000000000b4345e4fb5c91017357284311c0e8b3c787daedc"
          ],
          "data": "0x0000000000000000000000000000000000000000000000000000000000002710",
          "blockHash": "0x65d11dd9357fd9b49cc85143acd23c758858796354be9d2d98a84f6ad5f8e17e",
          "blockNumber": "0x9006fd",
          "blockTimestamp": "0x68f3ab58",
          "transactionHash": "0x836fd03b873cb89728850d9e40c1ef6aa8572a61d08bcd5b581fa45b7e066cce",
          "transactionIndex": "0x2c",
          "logIndex": "0x37",
          "removed": false
        }
      ],
      "logsBloom": "0x00000000000000000000800000000000000000000000000000000000000000000000000000000000000000000000800000000000000000001000000000200000000000000000000000000000000000000000000000000000000000000004000000000000000000000000000000000000000000000000000000000000000000000000000000000000000000000000000000000000000000000000000000000000020000000000000000000000000040000000000000000000000000000000000000000060000000000000000000000000200000000000000080000000000000000010000000000000000000000000000000000000000000000000000000000000",
      "type": "0x2",
      "transactionHash": "0x836fd03b873cb89728850d9e40c1ef6aa8572a61d08bcd5b581fa45b7e066cce",
      "transactionIndex": "0x2c",
      "blockHash": "0x65d11dd9357fd9b49cc85143acd23c758858796354be9d2d98a84f6ad5f8e17e",
      "blockNumber": "0x9006fd",
      "gasUsed": "0xeae4",
      "effectiveGasPrice": "0xf4249",
      "from": "0x484826732d75d6a8018bfad3468bd84f64614268",
      "to": "0xcac524bca292aaade2df8a05cc58f0a65b1b3bb9",
      "contractAddress": null
    },
    {
      "status": "0x1",
      "cumulativeGasUsed": "0x5df5d7",
      "logs": [
        {
          "address": "0x1c7d4b196cb0c7b01d743fbc6116a902379c7238",
          "topics": [
            "0x8c5be1e5ebec7d5bd14f71427d1e84f3dd0314c0f7b2291e5b200ac8c7c3b925",
            "0x000000000000000000000000484826732d75d6a8018bfad3468bd84f64614268",
            "0x000000000000000000000000b4345e4fb5c91017357284311c0e8b3c787daedc"
          ],
          "data": "0x0000000000000000000000000000000000000000000000000000000000002710",
          "blockHash": "0x65d11dd9357fd9b49cc85143acd23c758858796354be9d2d98a84f6ad5f8e17e",
          "blockNumber": "0x9006fd",
          "blockTimestamp": "0x68f3ab58",
          "transactionHash": "0x9d5762315f3012b72a980d77a52730c0632dbb58eaf58b7449579e085a8af9aa",
          "transactionIndex": "0x2d",
          "logIndex": "0x38",
          "removed": false
        }
      ],
      "logsBloom": "0x00000000000000000000800000000000000000000000000000000000000200000000000000000000000000000000000000000000000000001000000000200000000000000000000000000000000000000000000000000000000000000004000000000000000000000000000000000000000000000000000000000000000000000000000000100000000000000000000000000000000000000000000000000000020000000000000000000000000000000000000000000000000000000000000000000060000000000000000000000000000000000000000080000000000000000010000000000000000010000000000000000000000000000000000000000000",
      "type": "0x2",
      "transactionHash": "0x9d5762315f3012b72a980d77a52730c0632dbb58eaf58b7449579e085a8af9aa",
      "transactionIndex": "0x2d",
      "blockHash": "0x65d11dd9357fd9b49cc85143acd23c758858796354be9d2d98a84f6ad5f8e17e",
      "blockNumber": "0x9006fd",
      "gasUsed": "0xd881",
      "effectiveGasPrice": "0xf4249",
      "from": "0x484826732d75d6a8018bfad3468bd84f64614268",
      "to": "0x1c7d4b196cb0c7b01d743fbc6116a902379c7238",
      "contractAddress": null
    },
    {
      "status": "0x1",
      "cumulativeGasUsed": "0x5f6b60",
      "logs": [
        {
          "address": "0xcac524bca292aaade2df8a05cc58f0a65b1b3bb9",
          "topics": [
            "0xddf252ad1be2c89b69c2b068fc378daa952ba7f163c4a11628f55a4df523b3ef",
            "0x000000000000000000000000484826732d75d6a8018bfad3468bd84f64614268",
            "0x000000000000000000000000b4345e4fb5c91017357284311c0e8b3c787daedc"
          ],
          "data": "0x0000000000000000000000000000000000000000000000000000000000002710",
          "blockHash": "0x65d11dd9357fd9b49cc85143acd23c758858796354be9d2d98a84f6ad5f8e17e",
          "blockNumber": "0x9006fd",
          "blockTimestamp": "0x68f3ab58",
          "transactionHash": "0x3efbd21f6f6c9cbb5933e770c57a6a6df616457512a740ecb20c61081b96d367",
          "transactionIndex": "0x2e",
          "logIndex": "0x39",
          "removed": false
        },
        {
          "address": "0x1c7d4b196cb0c7b01d743fbc6116a902379c7238",
          "topics": [
            "0xddf252ad1be2c89b69c2b068fc378daa952ba7f163c4a11628f55a4df523b3ef",
            "0x000000000000000000000000484826732d75d6a8018bfad3468bd84f64614268",
            "0x000000000000000000000000b4345e4fb5c91017357284311c0e8b3c787daedc"
          ],
          "data": "0x0000000000000000000000000000000000000000000000000000000000002710",
          "blockHash": "0x65d11dd9357fd9b49cc85143acd23c758858796354be9d2d98a84f6ad5f8e17e",
          "blockNumber": "0x9006fd",
          "blockTimestamp": "0x68f3ab58",
          "transactionHash": "0x3efbd21f6f6c9cbb5933e770c57a6a6df616457512a740ecb20c61081b96d367",
          "transactionIndex": "0x2e",
          "logIndex": "0x3a",
          "removed": false
        },
        {
          "address": "0xb4345e4fb5c91017357284311c0e8b3c787daedc",
          "topics": [
            "0x38f8a0c92f4c5b0b6877f878cb4c0c8d348a47b76d716c8e78f425043df9515b"
          ],
          "data": "0x00000000000000000000000000000000000000000000000000000000000027100000000000000000000000000000000000000000000000000000000000002710",
          "blockHash": "0x65d11dd9357fd9b49cc85143acd23c758858796354be9d2d98a84f6ad5f8e17e",
          "blockNumber": "0x9006fd",
          "blockTimestamp": "0x68f3ab58",
          "transactionHash": "0x3efbd21f6f6c9cbb5933e770c57a6a6df616457512a740ecb20c61081b96d367",
          "transactionIndex": "0x2e",
          "logIndex": "0x3b",
          "removed": false
        }
      ],
      "logsBloom": "0x00000000000000000000800000000000000000000000000000000000000200000800000000000000000000000000800000000000000000001000000000000000200000000000000000000008000000000000000000000004000000000004000000000000000000000000000000000000000000080000000000000010000000000000000000100000000000000000000000000000000000000000000000000000000000000000080000000000000040000000000000000000000010000000000000000062000000000000000000000000200000000000000080000000000000000000000000000000000010000000000000000000000000000000000000000000",
      "type": "0x2",
      "transactionHash": "0x3efbd21f6f6c9cbb5933e770c57a6a6df616457512a740ecb20c61081b96d367",
      "transactionIndex": "0x2e",
      "blockHash": "0x65d11dd9357fd9b49cc85143acd23c758858796354be9d2d98a84f6ad5f8e17e",
      "blockNumber": "0x9006fd",
      "gasUsed": "0x17589",
      "effectiveGasPrice": "0xf4249",
      "from": "0x484826732d75d6a8018bfad3468bd84f64614268",
      "to": "0xb4345e4fb5c91017357284311c0e8b3c787daedc",
      "contractAddress": null
    }
  ],
  "libraries": [],
  "pending": [],
  "returns": {},
  "timestamp": 1760799578973,
  "chain": 11155111,
  "commit": "077cb0a"
}