{
  "transactions": [
    {
      "hash": "0x1e726c6c556c1d08ee81e309531ca100f203ae9c5cfd0353da3c30ffda0c10d6",
      "transactionType": "CALL",
      "contractName": null,
      "contractAddress": "0xcac524bca292aaade2df8a05cc58f0a65b1b3bb9",
      "function": "approve(address,uint256)",
      "arguments": [
        "0xB4345e4fb5c91017357284311C0E8b3C787DAeDC",
        "1000000"
      ],
      "transaction": {
        "from": "0x484826732d75d6a8018bfad3468bd84f64614268",
        "to": "0xcac524bca292aaade2df8a05cc58f0a65b1b3bb9",
        "gas": "0x14481",
        "value": "0x0",
        "input": "0x095ea7b3000000000000000000000000b4345e4fb5c91017357284311c0e8b3c787daedc00000000000000000000000000000000000000000000000000000000000f4240",
        "nonce": "0xc7",
        "chainId": "0xaa36a7"
      },
      "additionalContracts": [],
      "isFixedGasLimit": false
    },
    {
      "hash": "0x7d1f8e0cad0dd1a29edd404e5f8f3a289559dc1413ba1adde7b02061b9c79b97",
      "transactionType": "CALL",
      "contractName": null,
      "contractAddress": "0x1c7d4b196cb0c7b01d743fbc6116a902379c7238",
      "function": "approve(address,uint256)",
      "arguments": [
        "0xB4345e4fb5c91017357284311C0E8b3C787DAeDC",
        "1000000"
      ],
      "transaction": {
        "from": "0x484826732d75d6a8018bfad3468bd84f64614268",
        "to": "0x1c7d4b196cb0c7b01d743fbc6116a902379c7238",
        "gas": "0x12b1b",
        "value": "0x0",
        "input": "0x095ea7b3000000000000000000000000b4345e4fb5c91017357284311c0e8b3c787daedc00000000000000000000000000000000000000000000000000000000000f4240",
        "nonce": "0xc8",
        "chainId": "0xaa36a7"
      },
      "additionalContracts": [],
      "isFixedGasLimit": false
    },
    {
      "hash": "0xdcfcfda59a4c25171695d858a9731617128bf8bf947778054b25dc5fcec382cc",
      "transactionType": "CALL",
      "contractName": null,
      "contractAddress": "0xb4345e4fb5c91017357284311c0e8b3c787daedc",
      "function": "addLiquidity(uint256,uint256)",
      "arguments": [
        "1000000",
        "1000000"
      ],
      "transaction": {
        "from": "0x484826732d75d6a8018bfad3468bd84f64614268",
        "to": "0xb4345e4fb5c91017357284311c0e8b3c787daedc",
        "gas": "0x2226e",
        "value": "0x0",
        "input": "0x9cd441da00000000000000000000000000000000000000000000000000000000000f424000000000000000000000000000000000000000000000000000000000000f4240",
        "nonce": "0xc9",
        "chainId": "0xaa36a7"
      },
      "additionalContracts": [],
      "isFixedGasLimit": false
    }
  ],
  "receipts": [
    {
      "status": "0x1",
      "cumulativeGasUsed": "0xa4dcfe",
      "logs": [
        {
          "address": "0xcac524bca292aaade2df8a05cc58f0a65b1b3bb9",
          "topics": [
            "0x8c5be1e5ebec7d5bd14f71427d1e84f3dd0314c0f7b2291e5b200ac8c7c3b925",
            "0x000000000000000000000000484826732d75d6a8018bfad3468bd84f64614268",
            "0x000000000000000000000000b4345e4fb5c91017357284311c0e8b3c787daedc"
          ],
          "data": "0x00000000000000000000000000000000000000000000000000000000000f4240",
          "blockHash": "0x780b601b7f26f78069f22e128970943e2474727612fbbce7f9e489312f1d810d",
          "blockNumber": "0x909197",
          "blockTimestamp": "0x68fa67bc",
          "transactionHash": "0x1e726c6c556c1d08ee81e309531ca100f203ae9c5cfd0353da3c30ffda0c10d6",
          "transactionIndex": "0x39",
          "logIndex": "0x5a",
          "removed": false
        }
      ],
      "logsBloom": "0x00000000000000000000800000000000000000000000000000000000000000000000000000000000000000000000800000000000000000001000000000200000000000000000000000000000000000000000000000000000000000000004000000000000000000000000000000000000000000000000000000000000000000000000000000000000000000000000000000000000000000000000000000000000020000000000000000000000000040000000000000000000000000000000000000000060000000000000000000000000200000000000000080000000000000000010000000000000000000000000000000000000000000000000000000000000",
      "type": "0x2",
      "transactionHash": "0x1e726c6c556c1d08ee81e309531ca100f203ae9c5cfd0353da3c30ffda0c10d6",
      "transactionIndex": "0x39",
      "blockHash": "0x780b601b7f26f78069f22e128970943e2474727612fbbce7f9e489312f1d810d",
      "blockNumber": "0x909197",
      "gasUsed": "0xeaf0",
      "effectiveGasPrice": "0xf424a",
      "from": "0x484826732d75d6a8018bfad3468bd84f64614268",
      "to": "0xcac524bca292aaade2df8a05cc58f0a65b1b3bb9",
      "contractAddress": null
    },
    {
      "status": "0x1",
      "cumulativeGasUsed": "0xa85297",
      "logs": [
        {
          "address": "0x1c7d4b196cb0c7b01d743fbc6116a902379c7238",
          "topics": [
            "0x8c5be1e5ebec7d5bd14f71427d1e84f3dd0314c0f7b2291e5b200ac8c7c3b925",
            "0x000000000000000000000000484826732d75d6a8018bfad3468bd84f64614268",
            "0x000000000000000000000000b4345e4fb5c91017357284311c0e8b3c787daedc"
          ],
          "data": "0x00000000000000000000000000000000000000000000000000000000000f4240",
          "blockHash": "0x780b601b7f26f78069f22e128970943e2474727612fbbce7f9e489312f1d810d",
          "blockNumber": "0x909197",
          "blockTimestamp": "0x68fa67bc",
          "transactionHash": "0x7d1f8e0cad0dd1a29edd404e5f8f3a289559dc1413ba1adde7b02061b9c79b97",
          "transactionIndex": "0x3d",
          "logIndex": "0x5f",
          "removed": false
        }
      ],
      "logsBloom": "0x00000000000000000000800000000000000000000000000000000000000200000000000000000000000000000000000000000000000000001000000000200000000000000000000000000000000000000000000000000000000000000004000000000000000000000000000000000000000000000000000000000000000000000000000000100000000000000000000000000000000000000000000000000000020000000000000000000000000000000000000000000000000000000000000000000060000000000000000000000000000000000000000080000000000000000010000000000000000010000000000000000000000000000000000000000000",
      "type": "0x2",
      "transactionHash": "0x7d1f8e0cad0dd1a29edd404e5f8f3a289559dc1413ba1adde7b02061b9c79b97",
      "transactionIndex": "0x3d",
      "blockHash": "0x780b601b7f26f78069f22e128970943e2474727612fbbce7f9e489312f1d810d",
      "blockNumber": "0x909197",
      "gasUsed": "0xd88d",
      "effectiveGasPrice": "0xf424a",
      "from": "0x484826732d75d6a8018bfad3468bd84f64614268",
      "to": "0x1c7d4b196cb0c7b01d743fbc6116a902379c7238",
      "contractAddress": null
    },
    {
      "status": "0x1",
      "cumulativeGasUsed": "0xa9c838",
      "logs": [
        {
          "address": "0xcac524bca292aaade2df8a05cc58f0a65b1b3bb9",
          "topics": [
            "0xddf252ad1be2c89b69c2b068fc378daa952ba7f163c4a11628f55a4df523b3ef",
            "0x000000000000000000000000484826732d75d6a8018bfad3468bd84f64614268",
            "0x000000000000000000000000b4345e4fb5c91017357284311c0e8b3c787daedc"
          ],
          "data": "0x00000000000000000000000000000000000000000000000000000000000f4240",
          "blockHash": "0x780b601b7f26f78069f22e128970943e2474727612fbbce7f9e489312f1d810d",
          "blockNumber": "0x909197",
          "blockTimestamp": "0x68fa67bc",
          "transactionHash": "0xdcfcfda59a4c25171695d858a9731617128bf8bf947778054b25dc5fcec382cc",
          "transactionIndex": "0x3e",
          "logIndex": "0x60",
          "removed": false
        },
        {
          "address": "0x1c7d4b196cb0c7b01d743fbc6116a902379c7238",
          "topics": [
            "0xddf252ad1be2c89b69c2b068fc378daa952ba7f163c4a11628f55a4df523b3ef",
            "0x000000000000000000000000484826732d75d6a8018bfad3468bd84f64614268",
            "0x000000000000000000000000b4345e4fb5c91017357284311c0e8b3c787daedc"
          ],
          "data": "0x00000000000000000000000000000000000000000000000000000000000f4240",
          "blockHash": "0x780b601b7f26f78069f22e128970943e2474727612fbbce7f9e489312f1d810d",
          "blockNumber": "0x909197",
          "blockTimestamp": "0x68fa67bc",
          "transactionHash": "0xdcfcfda59a4c25171695d858a9731617128bf8bf947778054b25dc5fcec382cc",
          "transactionIndex": "0x3e",
          "logIndex": "0x61",
          "removed": false
        },
        {
          "address": "0xb4345e4fb5c91017357284311c0e8b3c787daedc",
          "topics": [
            "0x38f8a0c92f4c5b0b6877f878cb4c0c8d348a47b76d716c8e78f425043df9515b"
          ],
          "data": "0x00000000000000000000000000000000000000000000000000000000000f424000000000000000000000000000000000000000000000000000000000000f4240",
          "blockHash": "0x780b601b7f26f78069f22e128970943e2474727612fbbce7f9e489312f1d810d",
          "blockNumber": "0x909197",
          "blockTimestamp": "0x68fa67bc",
          "transactionHash": "0xdcfcfda59a4c25171695d858a9731617128bf8bf947778054b25dc5fcec382cc",
          "transactionIndex": "0x3e",
          "logIndex": "0x62",
          "removed": false
        }
      ],
      "logsBloom": "0x00000000000000000000800000000000000000000000000000000000000200000800000000000000000000000000800000000000000000001000000000000000200000000000000000000008000000000000000000000004000000000004000000000000000000000000000000000000000000080000000000000010000000000000000000100000000000000000000000000000000000000000000000000000000000000000080000000000000040000000000000000000000010000000000000000062000000000000000000000000200000000000000080000000000000000000000000000000000010000000000000000000000000000000000000000000",
      "type": "0x2",
      "transactionHash": "0xdcfcfda59a4c25171695d858a9731617128bf8bf947778054b25dc5fcec382cc",
      "transactionIndex": "0x3e",
      "blockHash": "0x780b601b7f26f78069f22e128970943e2474727612fbbce7f9e489312f1d810d",
      "blockNumber": "0x909197",
      "gasUsed": "0x175a1",
      "effectiveGasPrice": "0xf424a",
      "from": "0x484826732d75d6a8018bfad3468bd84f64614268",
      "to": "0xb4345e4fb5c91017357284311c0e8b3c787daedc",
      "contractAddress": null
    }
  ],
  "libraries": [],
  "pending": [],
  "returns": {},
  "timestamp": 1761241022128,
  "chain": 11155111,
  "commit": "471784d"
}